{
  "_format": "hh-sol-artifact-1",
  "contractName": "Create",
  "sourceName": "contracts/Create.sol",
  "abi": [
    {
      "inputs": [],
      "stateMutability": "nonpayable",
      "type": "constructor"
    },
    {
      "anonymous": false,
      "inputs": [
        {
          "indexed": true,
          "internalType": "uint256",
          "name": "candidateId",
          "type": "uint256"
        },
        {
          "indexed": false,
          "internalType": "string",
          "name": "age",
          "type": "string"
        },
        {
          "indexed": false,
          "internalType": "string",
          "name": "name",
          "type": "string"
        },
        {
          "indexed": false,
          "internalType": "string",
          "name": "image",
          "type": "string"
        },
        {
          "indexed": false,
          "internalType": "uint256",
          "name": "voteCount",
          "type": "uint256"
        },
        {
          "indexed": false,
          "internalType": "address",
          "name": "_address",
          "type": "address"
        },
        {
          "indexed": false,
          "internalType": "string",
          "name": "ipfs",
          "type": "string"
        }
      ],
      "name": "CandidateCreate",
      "type": "event"
    },
    {
      "anonymous": false,
      "inputs": [
        {
          "indexed": true,
          "internalType": "uint256",
          "name": "voter_voterId",
          "type": "uint256"
        },
        {
          "indexed": false,
          "internalType": "string",
          "name": "voter_name",
          "type": "string"
        },
        {
          "indexed": false,
          "internalType": "string",
          "name": "voter_image",
          "type": "string"
        },
        {
          "indexed": false,
          "internalType": "address",
          "name": "voter_address",
          "type": "address"
        },
        {
          "indexed": false,
          "internalType": "uint256",
          "name": "voter_allowed",
          "type": "uint256"
        },
        {
          "indexed": false,
          "internalType": "bool",
          "name": "voter_voted",
          "type": "bool"
        },
        {
          "indexed": false,
          "internalType": "uint256",
          "name": "voter_vote",
          "type": "uint256"
        },
        {
          "indexed": false,
          "internalType": "string",
          "name": "voter_ipfs",
          "type": "string"
        }
      ],
      "name": "VoterCreated",
      "type": "event"
    },
    {
      "inputs": [],
      "name": "_candidateId",
      "outputs": [
        {
          "internalType": "uint256",
          "name": "",
          "type": "uint256"
        }
      ],
      "stateMutability": "view",
      "type": "function"
    },
    {
      "inputs": [],
      "name": "_voterId",
      "outputs": [
        {
          "internalType": "uint256",
          "name": "",
          "type": "uint256"
        }
      ],
      "stateMutability": "view",
      "type": "function"
    },
    {
      "inputs": [
        {
          "internalType": "uint256",
          "name": "",
          "type": "uint256"
        }
      ],
      "name": "candidateAddress",
      "outputs": [
        {
          "internalType": "address",
          "name": "",
          "type": "address"
        }
      ],
      "stateMutability": "view",
      "type": "function"
    },
    {
      "inputs": [
        {
          "internalType": "address",
          "name": "",
          "type": "address"
        }
      ],
      "name": "candidates",
      "outputs": [
        {
          "internalType": "uint256",
          "name": "candidateId",
          "type": "uint256"
        },
        {
          "internalType": "string",
          "name": "age",
          "type": "string"
        },
        {
          "internalType": "string",
          "name": "name",
          "type": "string"
        },
        {
          "internalType": "string",
          "name": "image",
          "type": "string"
        },
        {
          "internalType": "uint256",
          "name": "voteCount",
          "type": "uint256"
        },
        {
          "internalType": "address",
          "name": "_address",
          "type": "address"
        },
        {
          "internalType": "string",
          "name": "ipfs",
          "type": "string"
        }
      ],
      "stateMutability": "view",
      "type": "function"
    },
    {
      "inputs": [],
      "name": "getCandidate",
      "outputs": [
        {
          "internalType": "address[]",
          "name": "",
          "type": "address[]"
        }
      ],
      "stateMutability": "view",
      "type": "function"
    },
    {
      "inputs": [],
      "name": "getCandidateLength",
      "outputs": [
        {
          "internalType": "uint256",
          "name": "",
          "type": "uint256"
        }
      ],
      "stateMutability": "view",
      "type": "function"
    },
    {
      "inputs": [
        {
          "internalType": "address",
          "name": "_address",
          "type": "address"
        }
      ],
      "name": "getCandidatedata",
      "outputs": [
        {
          "internalType": "string",
          "name": "",
          "type": "string"
        },
        {
          "internalType": "string",
          "name": "",
          "type": "string"
        },
        {
          "internalType": "uint256",
          "name": "",
          "type": "uint256"
        },
        {
          "internalType": "string",
          "name": "",
          "type": "string"
        },
        {
          "internalType": "uint256",
          "name": "",
          "type": "uint256"
        },
        {
          "internalType": "string",
          "name": "",
          "type": "string"
        },
        {
          "internalType": "address",
          "name": "",
          "type": "address"
        }
      ],
      "stateMutability": "view",
      "type": "function"
    },
    {
      "inputs": [],
      "name": "getVotedVoterList",
      "outputs": [
        {
          "internalType": "address[]",
          "name": "",
          "type": "address[]"
        }
      ],
      "stateMutability": "view",
      "type": "function"
    },
    {
      "inputs": [],
      "name": "getVoterLength",
      "outputs": [
        {
          "internalType": "uint256",
          "name": "",
          "type": "uint256"
        }
      ],
      "stateMutability": "view",
      "type": "function"
    },
    {
      "inputs": [],
      "name": "getVoterList",
      "outputs": [
        {
          "internalType": "address[]",
          "name": "",
          "type": "address[]"
        }
      ],
      "stateMutability": "view",
      "type": "function"
    },
    {
      "inputs": [
        {
          "internalType": "address",
          "name": "_address",
          "type": "address"
        }
      ],
      "name": "getVoterdata",
      "outputs": [
        {
          "internalType": "uint256",
          "name": "",
          "type": "uint256"
        },
        {
          "internalType": "string",
          "name": "",
          "type": "string"
        },
        {
          "internalType": "string",
          "name": "",
          "type": "string"
        },
        {
          "internalType": "address",
          "name": "",
          "type": "address"
        },
        {
          "internalType": "string",
          "name": "",
          "type": "string"
        },
        {
          "internalType": "uint256",
          "name": "",
          "type": "uint256"
        },
        {
          "internalType": "bool",
          "name": "",
          "type": "bool"
        }
      ],
      "stateMutability": "view",
      "type": "function"
    },
    {
      "inputs": [
        {
          "internalType": "address",
          "name": "_address",
          "type": "address"
        },
        {
          "internalType": "string",
          "name": "_age",
          "type": "string"
        },
        {
          "internalType": "string",
          "name": "_name",
          "type": "string"
        },
        {
          "internalType": "string",
          "name": "_image",
          "type": "string"
        },
        {
          "internalType": "string",
          "name": "_ipfs",
          "type": "string"
        }
      ],
      "name": "setCandidate",
      "outputs": [],
      "stateMutability": "nonpayable",
      "type": "function"
    },
    {
      "inputs": [
        {
          "internalType": "address",
          "name": "_candidateAddress",
          "type": "address"
        },
        {
          "internalType": "uint256",
          "name": "_candidateVoteId",
          "type": "uint256"
        }
      ],
      "name": "vote",
      "outputs": [],
      "stateMutability": "nonpayable",
      "type": "function"
    },
    {
      "inputs": [
        {
          "internalType": "uint256",
          "name": "",
          "type": "uint256"
        }
      ],
      "name": "votedVoters",
      "outputs": [
        {
          "internalType": "address",
          "name": "",
          "type": "address"
        }
      ],
      "stateMutability": "view",
      "type": "function"
    },
    {
      "inputs": [
        {
          "internalType": "address",
          "name": "_address",
          "type": "address"
        },
        {
          "internalType": "string",
          "name": "_name",
          "type": "string"
        },
        {
          "internalType": "string",
          "name": "_image",
          "type": "string"
        },
        {
          "internalType": "string",
          "name": "_ipfs",
          "type": "string"
        }
      ],
      "name": "voterRight",
      "outputs": [],
      "stateMutability": "nonpayable",
      "type": "function"
    },
    {
      "inputs": [
        {
          "internalType": "address",
          "name": "",
          "type": "address"
        }
      ],
      "name": "voters",
      "outputs": [
        {
          "internalType": "uint256",
          "name": "voter_voterId",
          "type": "uint256"
        },
        {
          "internalType": "string",
          "name": "voter_name",
          "type": "string"
        },
        {
          "internalType": "string",
          "name": "voter_image",
          "type": "string"
        },
        {
          "internalType": "address",
          "name": "voter_address",
          "type": "address"
        },
        {
          "internalType": "uint256",
          "name": "voter_allowed",
          "type": "uint256"
        },
        {
          "internalType": "bool",
          "name": "voter_voted",
          "type": "bool"
        },
        {
          "internalType": "uint256",
          "name": "voter_vote",
          "type": "uint256"
        },
        {
          "internalType": "string",
          "name": "voter_ipfs",
          "type": "string"
        }
      ],
      "stateMutability": "view",
      "type": "function"
    },
    {
      "inputs": [
        {
          "internalType": "uint256",
          "name": "",
          "type": "uint256"
        }
      ],
      "name": "votersAddress",
      "outputs": [
        {
          "internalType": "address",
          "name": "",
          "type": "address"
        }
      ],
      "stateMutability": "view",
      "type": "function"
    },
    {
      "inputs": [],
      "name": "votingOrganizer",
      "outputs": [
        {
          "internalType": "address",
          "name": "",
          "type": "address"
        }
      ],
      "stateMutability": "view",
      "type": "function"
    }
  ],
  "bytecode": "0x608060405234801561001057600080fd5b5033600260006101000a81548173ffffffffffffffffffffffffffffffffffffffff021916908373ffffffffffffffffffffffffffffffffffffffff160217905550612819806100616000396000f3fe608060405234801561001057600080fd5b50600436106101165760003560e01c80638e945685116100a2578063b63c82ca11610071578063b63c82ca14610304578063b9be31521461033a578063c5036fd414610358578063c91ec7121461038e578063f7522a83146103aa57610116565b80638e94568514610273578063a3ec138d14610291578063a7388967146102c8578063b28d92ae146102e657610116565b80635cc48aa7116100e95780635cc48aa7146101b55780635f74bbde146101d357806370218b85146101ef5780637831ffb31461020d5780638ab66a901461023d57610116565b80630361419e1461011b57806305ad45a4146101375780633a88251a1461015557806343242daa14610185575b600080fd5b61013560048036038101906101309190611b5a565b6103c8565b005b61013f610647565b60405161014c9190611c2e565b60405180910390f35b61016f600480360381019061016a9190611c75565b610654565b60405161017c9190611cb1565b60405180910390f35b61019f600480360381019061019a9190611c75565b610693565b6040516101ac9190611cb1565b60405180910390f35b6101bd6106d2565b6040516101ca9190611cb1565b60405180910390f35b6101ed60048036038101906101e89190611ccc565b6106f8565b005b6101f76108bf565b6040516102049190611dca565b60405180910390f35b61022760048036038101906102229190611c75565b61094d565b6040516102349190611cb1565b60405180910390f35b61025760048036038101906102529190611dec565b61098c565b60405161026a9796959493929190611e98565b60405180910390f35b61027b610c0e565b6040516102889190611dca565b60405180910390f35b6102ab60048036038101906102a69190611dec565b610c9c565b6040516102bf989796959493929190611f3e565b60405180910390f35b6102d0610ea9565b6040516102dd9190611c2e565b60405180910390f35b6102ee610eaf565b6040516102fb9190611dca565b60405180910390f35b61031e60048036038101906103199190611dec565b610f3d565b6040516103319796959493929190611fd1565b60405180910390f35b610342611384565b60405161034f9190611c2e565b60405180910390f35b610372600480360381019061036d9190611dec565b61138a565b604051610385979695949392919061205c565b60405180910390f35b6103a860048036038101906103a391906120e0565b611752565b005b6103b2611995565b6040516103bf9190611c2e565b60405180910390f35b3373ffffffffffffffffffffffffffffffffffffffff16600260009054906101000a900473ffffffffffffffffffffffffffffffffffffffff1673ffffffffffffffffffffffffffffffffffffffff1614610458576040517f08c379a000000000000000000000000000000000000000000000000000000000815260040161044f90612217565b60405180910390fd5b600160008082825461046a9190612266565b925050819055506000805490506000600760008773ffffffffffffffffffffffffffffffffffffffff1673ffffffffffffffffffffffffffffffffffffffff168152602001908152602001600020905060008160040154146104cb57600080fd5b60018160040181905550848160010190816104e691906124a6565b50838160020190816104f891906124a6565b50858160030160006101000a81548173ffffffffffffffffffffffffffffffffffffffff021916908373ffffffffffffffffffffffffffffffffffffffff1602179055508181600001819055506103e8816006018190555060008160050160006101000a81548160ff0219169083151502179055508281600701908161057e91906124a6565b506006869080600181540180825580915050600190039060005260206000200160009091909190916101000a81548173ffffffffffffffffffffffffffffffffffffffff021916908373ffffffffffffffffffffffffffffffffffffffff160217905550817ff5f39971dd62d9929e3a9feaa6bb77fe7c7da0001babff8a65a7e51ad0201c1986868985600401548660050160009054906101000a900460ff1687600601548a6040516106379796959493929190612578565b60405180910390a2505050505050565b6000600680549050905090565b6003818154811061066457600080fd5b906000526020600020016000915054906101000a900473ffffffffffffffffffffffffffffffffffffffff1681565b600681815481106106a357600080fd5b906000526020600020016000915054906101000a900473ffffffffffffffffffffffffffffffffffffffff1681565b600260009054906101000a900473ffffffffffffffffffffffffffffffffffffffff1681565b6000600760003373ffffffffffffffffffffffffffffffffffffffff1673ffffffffffffffffffffffffffffffffffffffff16815260200190815260200160002090508060050160009054906101000a900460ff161561078d576040517f08c379a000000000000000000000000000000000000000000000000000000000815260040161078490612648565b60405180910390fd5b60008160040154036107d4576040517f08c379a00000000000000000000000000000000000000000000000000000000081526004016107cb906126b4565b60405180910390fd5b60018160050160006101000a81548160ff0219169083151502179055508181600601819055506005339080600181540180825580915050600190039060005260206000200160009091909190916101000a81548173ffffffffffffffffffffffffffffffffffffffff021916908373ffffffffffffffffffffffffffffffffffffffff1602179055508060040154600460008573ffffffffffffffffffffffffffffffffffffffff1673ffffffffffffffffffffffffffffffffffffffff16815260200190815260200160002060040160008282546108b39190612266565b92505081905550505050565b6060600380548060200260200160405190810160405280929190818152602001828054801561094357602002820191906000526020600020905b8160009054906101000a900473ffffffffffffffffffffffffffffffffffffffff1673ffffffffffffffffffffffffffffffffffffffff16815260200190600101908083116108f9575b5050505050905090565b6005818154811061095d57600080fd5b906000526020600020016000915054906101000a900473ffffffffffffffffffffffffffffffffffffffff1681565b60046020528060005260406000206000915090508060000154908060010180546109b5906122c9565b80601f01602080910402602001604051908101604052809291908181526020018280546109e1906122c9565b8015610a2e5780601f10610a0357610100808354040283529160200191610a2e565b820191906000526020600020905b815481529060010190602001808311610a1157829003601f168201915b505050505090806002018054610a43906122c9565b80601f0160208091040260200160405190810160405280929190818152602001828054610a6f906122c9565b8015610abc5780601f10610a9157610100808354040283529160200191610abc565b820191906000526020600020905b815481529060010190602001808311610a9f57829003601f168201915b505050505090806003018054610ad1906122c9565b80601f0160208091040260200160405190810160405280929190818152602001828054610afd906122c9565b8015610b4a5780601f10610b1f57610100808354040283529160200191610b4a565b820191906000526020600020905b815481529060010190602001808311610b2d57829003601f168201915b5050505050908060040154908060050160009054906101000a900473ffffffffffffffffffffffffffffffffffffffff1690806006018054610b8b906122c9565b80601f0160208091040260200160405190810160405280929190818152602001828054610bb7906122c9565b8015610c045780601f10610bd957610100808354040283529160200191610c04565b820191906000526020600020905b815481529060010190602001808311610be757829003601f168201915b5050505050905087565b60606005805480602002602001604051908101604052809291908181526020018280548015610c9257602002820191906000526020600020905b8160009054906101000a900473ffffffffffffffffffffffffffffffffffffffff1673ffffffffffffffffffffffffffffffffffffffff1681526020019060010190808311610c48575b5050505050905090565b6007602052806000526040600020600091509050806000015490806001018054610cc5906122c9565b80601f0160208091040260200160405190810160405280929190818152602001828054610cf1906122c9565b8015610d3e5780601f10610d1357610100808354040283529160200191610d3e565b820191906000526020600020905b815481529060010190602001808311610d2157829003601f168201915b505050505090806002018054610d53906122c9565b80601f0160208091040260200160405190810160405280929190818152602001828054610d7f906122c9565b8015610dcc5780601f10610da157610100808354040283529160200191610dcc565b820191906000526020600020905b815481529060010190602001808311610daf57829003601f168201915b5050505050908060030160009054906101000a900473ffffffffffffffffffffffffffffffffffffffff16908060040154908060050160009054906101000a900460ff1690806006015490806007018054610e26906122c9565b80601f0160208091040260200160405190810160405280929190818152602001828054610e52906122c9565b8015610e9f5780601f10610e7457610100808354040283529160200191610e9f565b820191906000526020600020905b815481529060010190602001808311610e8257829003601f168201915b5050505050905088565b60015481565b60606006805480602002602001604051908101604052809291908181526020018280548015610f3357602002820191906000526020600020905b8160009054906101000a900473ffffffffffffffffffffffffffffffffffffffff1673ffffffffffffffffffffffffffffffffffffffff1681526020019060010190808311610ee9575b5050505050905090565b60608060006060600060606000600460008973ffffffffffffffffffffffffffffffffffffffff1673ffffffffffffffffffffffffffffffffffffffff168152602001908152602001600020600101600460008a73ffffffffffffffffffffffffffffffffffffffff1673ffffffffffffffffffffffffffffffffffffffff168152602001908152602001600020600201600460008b73ffffffffffffffffffffffffffffffffffffffff1673ffffffffffffffffffffffffffffffffffffffff16815260200190815260200160002060000154600460008c73ffffffffffffffffffffffffffffffffffffffff1673ffffffffffffffffffffffffffffffffffffffff168152602001908152602001600020600301600460008d73ffffffffffffffffffffffffffffffffffffffff1673ffffffffffffffffffffffffffffffffffffffff16815260200190815260200160002060040154600460008e73ffffffffffffffffffffffffffffffffffffffff1673ffffffffffffffffffffffffffffffffffffffff168152602001908152602001600020600601600460008f73ffffffffffffffffffffffffffffffffffffffff1673ffffffffffffffffffffffffffffffffffffffff16815260200190815260200160002060050160009054906101000a900473ffffffffffffffffffffffffffffffffffffffff16868054611147906122c9565b80601f0160208091040260200160405190810160405280929190818152602001828054611173906122c9565b80156111c05780601f10611195576101008083540402835291602001916111c0565b820191906000526020600020905b8154815290600101906020018083116111a357829003601f168201915b505050505096508580546111d3906122c9565b80601f01602080910402602001604051908101604052809291908181526020018280546111ff906122c9565b801561124c5780601f106112215761010080835404028352916020019161124c565b820191906000526020600020905b81548152906001019060200180831161122f57829003601f168201915b5050505050955083805461125f906122c9565b80601f016020809104026020016040519081016040528092919081815260200182805461128b906122c9565b80156112d85780601f106112ad576101008083540402835291602001916112d8565b820191906000526020600020905b8154815290600101906020018083116112bb57829003601f168201915b505050505093508180546112eb906122c9565b80601f0160208091040260200160405190810160405280929190818152602001828054611317906122c9565b80156113645780601f1061133957610100808354040283529160200191611364565b820191906000526020600020905b81548152906001019060200180831161134757829003601f168201915b505050505091509650965096509650965096509650919395979092949650565b60005481565b600060608060006060600080600760008973ffffffffffffffffffffffffffffffffffffffff1673ffffffffffffffffffffffffffffffffffffffff16815260200190815260200160002060000154600760008a73ffffffffffffffffffffffffffffffffffffffff1673ffffffffffffffffffffffffffffffffffffffff168152602001908152602001600020600101600760008b73ffffffffffffffffffffffffffffffffffffffff1673ffffffffffffffffffffffffffffffffffffffff168152602001908152602001600020600201600760008c73ffffffffffffffffffffffffffffffffffffffff1673ffffffffffffffffffffffffffffffffffffffff16815260200190815260200160002060030160009054906101000a900473ffffffffffffffffffffffffffffffffffffffff16600760008d73ffffffffffffffffffffffffffffffffffffffff1673ffffffffffffffffffffffffffffffffffffffff168152602001908152602001600020600701600760008e73ffffffffffffffffffffffffffffffffffffffff1673ffffffffffffffffffffffffffffffffffffffff16815260200190815260200160002060040154600760008f73ffffffffffffffffffffffffffffffffffffffff1673ffffffffffffffffffffffffffffffffffffffff16815260200190815260200160002060050160009054906101000a900460ff168580546115a1906122c9565b80601f01602080910402602001604051908101604052809291908181526020018280546115cd906122c9565b801561161a5780601f106115ef5761010080835404028352916020019161161a565b820191906000526020600020905b8154815290600101906020018083116115fd57829003601f168201915b5050505050955084805461162d906122c9565b80601f0160208091040260200160405190810160405280929190818152602001828054611659906122c9565b80156116a65780601f1061167b576101008083540402835291602001916116a6565b820191906000526020600020905b81548152906001019060200180831161168957829003601f168201915b505050505094508280546116b9906122c9565b80601f01602080910402602001604051908101604052809291908181526020018280546116e5906122c9565b80156117325780601f1061170757610100808354040283529160200191611732565b820191906000526020600020905b81548152906001019060200180831161171557829003601f168201915b505050505092509650965096509650965096509650919395979092949650565b3373ffffffffffffffffffffffffffffffffffffffff16600260009054906101000a900473ffffffffffffffffffffffffffffffffffffffff1673ffffffffffffffffffffffffffffffffffffffff16146117e2576040517f08c379a00000000000000000000000000000000000000000000000000000000081526004016117d990612746565b60405180910390fd5b60018060008282546117f49190612266565b92505081905550600060015490506000600460008873ffffffffffffffffffffffffffffffffffffffff1673ffffffffffffffffffffffffffffffffffffffff16815260200190815260200160002090508581600101908161185691906124a6565b508481600201908161186891906124a6565b508181600001819055508381600301908161188391906124a6565b5060008160040181905550868160050160006101000a81548173ffffffffffffffffffffffffffffffffffffffff021916908373ffffffffffffffffffffffffffffffffffffffff160217905550828160060190816118e291906124a6565b506003879080600181540180825580915050600190039060005260206000200160009091909190916101000a81548173ffffffffffffffffffffffffffffffffffffffff021916908373ffffffffffffffffffffffffffffffffffffffff160217905550817fd297f12b256bb8485a6013fb5e302017018123e99a0ebb20756c09e1707b4b9087878785600401548c8960405161198496959493929190612766565b60405180910390a250505050505050565b6000600380549050905090565b6000604051905090565b600080fd5b600080fd5b600073ffffffffffffffffffffffffffffffffffffffff82169050919050565b60006119e1826119b6565b9050919050565b6119f1816119d6565b81146119fc57600080fd5b50565b600081359050611a0e816119e8565b92915050565b600080fd5b600080fd5b6000601f19601f8301169050919050565b7f4e487b7100000000000000000000000000000000000000000000000000000000600052604160045260246000fd5b611a6782611a1e565b810181811067ffffffffffffffff82111715611a8657611a85611a2f565b5b80604052505050565b6000611a996119a2565b9050611aa58282611a5e565b919050565b600067ffffffffffffffff821115611ac557611ac4611a2f565b5b611ace82611a1e565b9050602081019050919050565b82818337600083830152505050565b6000611afd611af884611aaa565b611a8f565b905082815260208101848484011115611b1957611b18611a19565b5b611b24848285611adb565b509392505050565b600082601f830112611b4157611b40611a14565b5b8135611b51848260208601611aea565b91505092915050565b60008060008060808587031215611b7457611b736119ac565b5b6000611b82878288016119ff565b945050602085013567ffffffffffffffff811115611ba357611ba26119b1565b5b611baf87828801611b2c565b935050604085013567ffffffffffffffff811115611bd057611bcf6119b1565b5b611bdc87828801611b2c565b925050606085013567ffffffffffffffff811115611bfd57611bfc6119b1565b5b611c0987828801611b2c565b91505092959194509250565b6000819050919050565b611c2881611c15565b82525050565b6000602082019050611c436000830184611c1f565b92915050565b611c5281611c15565b8114611c5d57600080fd5b50565b600081359050611c6f81611c49565b92915050565b600060208284031215611c8b57611c8a6119ac565b5b6000611c9984828501611c60565b91505092915050565b611cab816119d6565b82525050565b6000602082019050611cc66000830184611ca2565b92915050565b60008060408385031215611ce357611ce26119ac565b5b6000611cf1858286016119ff565b9250506020611d0285828601611c60565b9150509250929050565b600081519050919050565b600082825260208201905092915050565b6000819050602082019050919050565b611d41816119d6565b82525050565b6000611d538383611d38565b60208301905092915050565b6000602082019050919050565b6000611d7782611d0c565b611d818185611d17565b9350611d8c83611d28565b8060005b83811015611dbd578151611da48882611d47565b9750611daf83611d5f565b925050600181019050611d90565b5085935050505092915050565b60006020820190508181036000830152611de48184611d6c565b905092915050565b600060208284031215611e0257611e016119ac565b5b6000611e10848285016119ff565b91505092915050565b600081519050919050565b600082825260208201905092915050565b60005b83811015611e53578082015181840152602081019050611e38565b60008484015250505050565b6000611e6a82611e19565b611e748185611e24565b9350611e84818560208601611e35565b611e8d81611a1e565b840191505092915050565b600060e082019050611ead600083018a611c1f565b8181036020830152611ebf8189611e5f565b90508181036040830152611ed38188611e5f565b90508181036060830152611ee78187611e5f565b9050611ef66080830186611c1f565b611f0360a0830185611ca2565b81810360c0830152611f158184611e5f565b905098975050505050505050565b60008115159050919050565b611f3881611f23565b82525050565b600061010082019050611f54600083018b611c1f565b8181036020830152611f66818a611e5f565b90508181036040830152611f7a8189611e5f565b9050611f896060830188611ca2565b611f966080830187611c1f565b611fa360a0830186611f2f565b611fb060c0830185611c1f565b81810360e0830152611fc28184611e5f565b90509998505050505050505050565b600060e0820190508181036000830152611feb818a611e5f565b90508181036020830152611fff8189611e5f565b905061200e6040830188611c1f565b81810360608301526120208187611e5f565b905061202f6080830186611c1f565b81810360a08301526120418185611e5f565b905061205060c0830184611ca2565b98975050505050505050565b600060e082019050612071600083018a611c1f565b81810360208301526120838189611e5f565b905081810360408301526120978188611e5f565b90506120a66060830187611ca2565b81810360808301526120b88186611e5f565b90506120c760a0830185611c1f565b6120d460c0830184611f2f565b98975050505050505050565b600080600080600060a086880312156120fc576120fb6119ac565b5b600061210a888289016119ff565b955050602086013567ffffffffffffffff81111561212b5761212a6119b1565b5b61213788828901611b2c565b945050604086013567ffffffffffffffff811115612158576121576119b1565b5b61216488828901611b2c565b935050606086013567ffffffffffffffff811115612185576121846119b1565b5b61219188828901611b2c565b925050608086013567ffffffffffffffff8111156121b2576121b16119b1565b5b6121be88828901611b2c565b9150509295509295909350565b7f4f6e6c79204f7267616e697a65722063616e2063726561746520766f74657200600082015250565b6000612201601f83611e24565b915061220c826121cb565b602082019050919050565b60006020820190508181036000830152612230816121f4565b9050919050565b7f4e487b7100000000000000000000000000000000000000000000000000000000600052601160045260246000fd5b600061227182611c15565b915061227c83611c15565b925082820190508082111561229457612293612237565b5b92915050565b7f4e487b7100000000000000000000000000000000000000000000000000000000600052602260045260246000fd5b600060028204905060018216806122e157607f821691505b6020821081036122f4576122f361229a565b5b50919050565b60008190508160005260206000209050919050565b60006020601f8301049050919050565b600082821b905092915050565b60006008830261235c7fffffffffffffffffffffffffffffffffffffffffffffffffffffffffffffffff8261231f565b612366868361231f565b95508019841693508086168417925050509392505050565b6000819050919050565b60006123a361239e61239984611c15565b61237e565b611c15565b9050919050565b6000819050919050565b6123bd83612388565b6123d16123c9826123aa565b84845461232c565b825550505050565b600090565b6123e66123d9565b6123f18184846123b4565b505050565b5b818110156124155761240a6000826123de565b6001810190506123f7565b5050565b601f82111561245a5761242b816122fa565b6124348461230f565b81016020851015612443578190505b61245761244f8561230f565b8301826123f6565b50505b505050565b600082821c905092915050565b600061247d6000198460080261245f565b1980831691505092915050565b6000612496838361246c565b9150826002028217905092915050565b6124af82611e19565b67ffffffffffffffff8111156124c8576124c7611a2f565b5b6124d282546122c9565b6124dd828285612419565b600060209050601f83116001811461251057600084156124fe578287015190505b612508858261248a565b865550612570565b601f19841661251e866122fa565b60005b8281101561254657848901518255600182019150602085019450602081019050612521565b86831015612563578489015161255f601f89168261246c565b8355505b6001600288020188555050505b505050505050565b600060e0820190508181036000830152612592818a611e5f565b905081810360208301526125a68189611e5f565b90506125b56040830188611ca2565b6125c26060830187611c1f565b6125cf6080830186611f2f565b6125dc60a0830185611c1f565b81810360c08301526125ee8184611e5f565b905098975050505050505050565b7f596f75206861766520616c726561647920766f74656400000000000000000000600082015250565b6000612632601683611e24565b915061263d826125fc565b602082019050919050565b6000602082019050818103600083015261266181612625565b9050919050565b7f596f752068617665206e6f20726967687420746f20766f746500000000000000600082015250565b600061269e601983611e24565b91506126a982612668565b602082019050919050565b600060208201905081810360008301526126cd81612691565b9050919050565b7f4f6e6c79204f7267616e697a65722063616e2072656769737465722063616e6460008201527f6964617465730000000000000000000000000000000000000000000000000000602082015250565b6000612730602683611e24565b915061273b826126d4565b604082019050919050565b6000602082019050818103600083015261275f81612723565b9050919050565b600060c08201905081810360008301526127808189611e5f565b905081810360208301526127948188611e5f565b905081810360408301526127a88187611e5f565b90506127b76060830186611c1f565b6127c46080830185611ca2565b81810360a08301526127d68184611e5f565b905097965050505050505056fea26469706673582212203c48e41c84b99601b267794e54bfb57d13e67228fb59ef59441a2f7a1c84aa5964736f6c63430008180033",
  "linkReferences": {},
  "deployedLinkReferences": {}
}